{
  "_format": "hh-sol-artifact-1",
  "contractName": "STLHarvest",
  "sourceName": "contracts/STLHarvest.sol",
  "abi": [
    {
      "inputs": [
        {
          "internalType": "contract STLToken",
          "name": "_rewardToken",
          "type": "address"
        }
      ],
      "stateMutability": "nonpayable",
      "type": "constructor"
    },
    {
      "inputs": [],
      "name": "AccessControlBadConfirmation",
      "type": "error"
    },
    {
      "inputs": [
        {
          "internalType": "address",
          "name": "account",
          "type": "address"
        },
        {
          "internalType": "bytes32",
          "name": "neededRole",
          "type": "bytes32"
        }
      ],
      "name": "AccessControlUnauthorizedAccount",
      "type": "error"
    },
    {
      "inputs": [
        {
          "internalType": "address",
          "name": "owner",
          "type": "address"
        }
      ],
      "name": "OwnableInvalidOwner",
      "type": "error"
    },
    {
      "inputs": [
        {
          "internalType": "address",
          "name": "account",
          "type": "address"
        }
      ],
      "name": "OwnableUnauthorizedAccount",
      "type": "error"
    },
    {
      "anonymous": false,
      "inputs": [
        {
          "indexed": true,
          "internalType": "address",
          "name": "previousOwner",
          "type": "address"
        },
        {
          "indexed": true,
          "internalType": "address",
          "name": "newOwner",
          "type": "address"
        }
      ],
      "name": "OwnershipTransferred",
      "type": "event"
    },
    {
      "anonymous": false,
      "inputs": [
        {
          "indexed": true,
          "internalType": "bytes32",
          "name": "role",
          "type": "bytes32"
        },
        {
          "indexed": true,
          "internalType": "bytes32",
          "name": "previousAdminRole",
          "type": "bytes32"
        },
        {
          "indexed": true,
          "internalType": "bytes32",
          "name": "newAdminRole",
          "type": "bytes32"
        }
      ],
      "name": "RoleAdminChanged",
      "type": "event"
    },
    {
      "anonymous": false,
      "inputs": [
        {
          "indexed": true,
          "internalType": "bytes32",
          "name": "role",
          "type": "bytes32"
        },
        {
          "indexed": true,
          "internalType": "address",
          "name": "account",
          "type": "address"
        },
        {
          "indexed": true,
          "internalType": "address",
          "name": "sender",
          "type": "address"
        }
      ],
      "name": "RoleGranted",
      "type": "event"
    },
    {
      "anonymous": false,
      "inputs": [
        {
          "indexed": true,
          "internalType": "bytes32",
          "name": "role",
          "type": "bytes32"
        },
        {
          "indexed": true,
          "internalType": "address",
          "name": "account",
          "type": "address"
        },
        {
          "indexed": true,
          "internalType": "address",
          "name": "sender",
          "type": "address"
        }
      ],
      "name": "RoleRevoked",
      "type": "event"
    },
    {
      "inputs": [],
      "name": "DEFAULT_ADMIN_ROLE",
      "outputs": [
        {
          "internalType": "bytes32",
          "name": "",
          "type": "bytes32"
        }
      ],
      "stateMutability": "view",
      "type": "function"
    },
    {
      "inputs": [],
      "name": "WEEK_UPDATER_ROLE",
      "outputs": [
        {
          "internalType": "bytes32",
          "name": "",
          "type": "bytes32"
        }
      ],
      "stateMutability": "view",
      "type": "function"
    },
    {
      "inputs": [
        {
          "internalType": "uint256",
          "name": "_amount",
          "type": "uint256"
        }
      ],
      "name": "addRewards",
      "outputs": [],
      "stateMutability": "nonpayable",
      "type": "function"
    },
    {
      "inputs": [],
      "name": "contractStartTime",
      "outputs": [
        {
          "internalType": "uint256",
          "name": "",
          "type": "uint256"
        }
      ],
      "stateMutability": "view",
      "type": "function"
    },
    {
      "inputs": [],
      "name": "currentWeek",
      "outputs": [
        {
          "internalType": "uint256",
          "name": "",
          "type": "uint256"
        }
      ],
      "stateMutability": "view",
      "type": "function"
    },
    {
      "inputs": [
        {
          "internalType": "uint256",
          "name": "_amount",
          "type": "uint256"
        }
      ],
      "name": "deposit",
      "outputs": [],
      "stateMutability": "nonpayable",
      "type": "function"
    },
    {
      "inputs": [
        {
          "internalType": "bytes32",
          "name": "role",
          "type": "bytes32"
        }
      ],
      "name": "getRoleAdmin",
      "outputs": [
        {
          "internalType": "bytes32",
          "name": "",
          "type": "bytes32"
        }
      ],
      "stateMutability": "view",
      "type": "function"
    },
    {
      "inputs": [
        {
          "internalType": "bytes32",
          "name": "role",
          "type": "bytes32"
        },
        {
          "internalType": "address",
          "name": "account",
          "type": "address"
        }
      ],
      "name": "grantRole",
      "outputs": [],
      "stateMutability": "nonpayable",
      "type": "function"
    },
    {
      "inputs": [
        {
          "internalType": "address",
          "name": "_account",
          "type": "address"
        }
      ],
      "name": "grantWeekUpdaterRole",
      "outputs": [],
      "stateMutability": "nonpayable",
      "type": "function"
    },
    {
      "inputs": [
        {
          "internalType": "bytes32",
          "name": "role",
          "type": "bytes32"
        },
        {
          "internalType": "address",
          "name": "account",
          "type": "address"
        }
      ],
      "name": "hasRole",
      "outputs": [
        {
          "internalType": "bool",
          "name": "",
          "type": "bool"
        }
      ],
      "stateMutability": "view",
      "type": "function"
    },
    {
      "inputs": [
        {
          "internalType": "uint256",
          "name": "",
          "type": "uint256"
        }
      ],
      "name": "holders",
      "outputs": [
        {
          "internalType": "address",
          "name": "",
          "type": "address"
        }
      ],
      "stateMutability": "view",
      "type": "function"
    },
    {
      "inputs": [
        {
          "internalType": "uint256",
          "name": "",
          "type": "uint256"
        }
      ],
      "name": "holdersGetRewards",
      "outputs": [
        {
          "internalType": "address",
          "name": "",
          "type": "address"
        }
      ],
      "stateMutability": "view",
      "type": "function"
    },
    {
      "inputs": [
        {
          "internalType": "address",
          "name": "",
          "type": "address"
        }
      ],
      "name": "holdersGetRewardsExist",
      "outputs": [
        {
          "internalType": "bool",
          "name": "",
          "type": "bool"
        }
      ],
      "stateMutability": "view",
      "type": "function"
    },
    {
      "inputs": [],
      "name": "owner",
      "outputs": [
        {
          "internalType": "address",
          "name": "",
          "type": "address"
        }
      ],
      "stateMutability": "view",
      "type": "function"
    },
    {
      "inputs": [],
      "name": "renounceOwnership",
      "outputs": [],
      "stateMutability": "nonpayable",
      "type": "function"
    },
    {
      "inputs": [
        {
          "internalType": "bytes32",
          "name": "role",
          "type": "bytes32"
        },
        {
          "internalType": "address",
          "name": "callerConfirmation",
          "type": "address"
        }
      ],
      "name": "renounceRole",
      "outputs": [],
      "stateMutability": "nonpayable",
      "type": "function"
    },
    {
      "inputs": [
        {
          "internalType": "bytes32",
          "name": "role",
          "type": "bytes32"
        },
        {
          "internalType": "address",
          "name": "account",
          "type": "address"
        }
      ],
      "name": "revokeRole",
      "outputs": [],
      "stateMutability": "nonpayable",
      "type": "function"
    },
    {
      "inputs": [
        {
          "internalType": "address",
          "name": "_account",
          "type": "address"
        }
      ],
      "name": "revokeWeekUpdaterRole",
      "outputs": [],
      "stateMutability": "nonpayable",
      "type": "function"
    },
    {
      "inputs": [],
      "name": "rewardToken",
      "outputs": [
        {
          "internalType": "contract STLToken",
          "name": "",
          "type": "address"
        }
      ],
      "stateMutability": "view",
      "type": "function"
    },
    {
      "inputs": [],
      "name": "startNewWeek",
      "outputs": [],
      "stateMutability": "nonpayable",
      "type": "function"
    },
    {
      "inputs": [
        {
          "internalType": "bytes4",
          "name": "interfaceId",
          "type": "bytes4"
        }
      ],
      "name": "supportsInterface",
      "outputs": [
        {
          "internalType": "bool",
          "name": "",
          "type": "bool"
        }
      ],
      "stateMutability": "view",
      "type": "function"
    },
    {
      "inputs": [
        {
          "internalType": "address",
          "name": "",
          "type": "address"
        }
      ],
      "name": "tokenBalances",
      "outputs": [
        {
          "internalType": "uint256",
          "name": "",
          "type": "uint256"
        }
      ],
      "stateMutability": "view",
      "type": "function"
    },
    {
      "inputs": [
        {
          "internalType": "address",
          "name": "newOwner",
          "type": "address"
        }
      ],
      "name": "transferOwnership",
      "outputs": [],
      "stateMutability": "nonpayable",
      "type": "function"
    },
    {
      "inputs": [
        {
          "internalType": "address",
          "name": "",
          "type": "address"
        },
        {
          "internalType": "uint256",
          "name": "",
          "type": "uint256"
        }
      ],
      "name": "userDepositsPerWeek",
      "outputs": [
        {
          "internalType": "uint256",
          "name": "",
          "type": "uint256"
        }
      ],
      "stateMutability": "view",
      "type": "function"
    },
    {
      "inputs": [
        {
          "internalType": "address",
          "name": "",
          "type": "address"
        },
        {
          "internalType": "uint256",
          "name": "",
          "type": "uint256"
        }
      ],
      "name": "userRewardsPerWeek",
      "outputs": [
        {
          "internalType": "uint256",
          "name": "",
          "type": "uint256"
        }
      ],
      "stateMutability": "view",
      "type": "function"
    },
    {
      "inputs": [
        {
          "internalType": "uint256",
          "name": "",
          "type": "uint256"
        }
      ],
      "name": "weeklyRewards",
      "outputs": [
        {
          "internalType": "uint256",
          "name": "",
          "type": "uint256"
        }
      ],
      "stateMutability": "view",
      "type": "function"
    },
    {
      "inputs": [],
      "name": "withdraw",
      "outputs": [],
      "stateMutability": "nonpayable",
      "type": "function"
    }
  ],
  "bytecode": "0x60806040523480156200001157600080fd5b506040516200259638038062002596833981810160405281019062000037919062000401565b33600073ffffffffffffffffffffffffffffffffffffffff168173ffffffffffffffffffffffffffffffffffffffff1603620000ad5760006040517f1e4fbdf7000000000000000000000000000000000000000000000000000000008152600401620000a4919062000444565b60405180910390fd5b620000be816200014960201b60201c565b5080600260006101000a81548173ffffffffffffffffffffffffffffffffffffffff021916908373ffffffffffffffffffffffffffffffffffffffff1602179055506001600a8190555042600b81905550620001417fdc4d902146794be661ef4fe230116fa914d3919dba626b607d78a983d28ba92c336200020d60201b60201c565b505062000461565b60008060009054906101000a900473ffffffffffffffffffffffffffffffffffffffff169050816000806101000a81548173ffffffffffffffffffffffffffffffffffffffff021916908373ffffffffffffffffffffffffffffffffffffffff1602179055508173ffffffffffffffffffffffffffffffffffffffff168173ffffffffffffffffffffffffffffffffffffffff167f8be0079c531659141344cd1fd0a4f28419497f9722a3daafe3b4186f6b6457e060405160405180910390a35050565b60006200022183836200031060201b60201c565b6200030557600180600085815260200190815260200160002060000160008473ffffffffffffffffffffffffffffffffffffffff1673ffffffffffffffffffffffffffffffffffffffff16815260200190815260200160002060006101000a81548160ff021916908315150217905550620002a16200037b60201b60201c565b73ffffffffffffffffffffffffffffffffffffffff168273ffffffffffffffffffffffffffffffffffffffff16847f2f8788117e7eff1d82e926ec794901d17c78024a50270940304540a733656f0d60405160405180910390a4600190506200030a565b600090505b92915050565b60006001600084815260200190815260200160002060000160008373ffffffffffffffffffffffffffffffffffffffff1673ffffffffffffffffffffffffffffffffffffffff16815260200190815260200160002060009054906101000a900460ff16905092915050565b600033905090565b600080fd5b600073ffffffffffffffffffffffffffffffffffffffff82169050919050565b6000620003b58262000388565b9050919050565b6000620003c982620003a8565b9050919050565b620003db81620003bc565b8114620003e757600080fd5b50565b600081519050620003fb81620003d0565b92915050565b6000602082840312156200041a576200041962000383565b5b60006200042a84828501620003ea565b91505092915050565b6200043e81620003a8565b82525050565b60006020820190506200045b600083018462000433565b92915050565b61212580620004716000396000f3fe608060405234801561001057600080fd5b50600436106101a95760003560e01c80638da5cb5b116100f9578063beceed3911610097578063f2daa64611610071578063f2daa646146104a6578063f2fde38b146104d6578063f7c618c1146104f2578063f827fbd014610510576101a9565b8063beceed3914610452578063d547741f1461046e578063d6e0ba8a1461048a576101a9565b8063a05583a7116100d3578063a05583a7146103b8578063a217fddf146103e8578063af364c0514610406578063b6b55f2514610436576101a9565b80638da5cb5b1461036057806391d148541461037e57806394c859f3146103ae576101a9565b806332170ed2116101665780633e44c2d0116101405780633e44c2d0146102d8578063523fba7f146102f6578063715018a6146103265780637ac0446014610330576101a9565b806332170ed21461029657806336568abe146102b25780633ccfd60b146102ce576101a9565b806301ffc9a7146101ae57806306575c89146101de5780630c3d5157146101fc578063248a9ca31461021a5780632a11ced01461024a5780632f2ff15d1461027a575b600080fd5b6101c860048036038101906101c39190611a9e565b610540565b6040516101d59190611ae6565b60405180910390f35b6101e66105ba565b6040516101f39190611b1a565b60405180910390f35b6102046105c0565b6040516102119190611b1a565b60405180910390f35b610234600480360381019061022f9190611b6b565b6105c6565b6040516102419190611ba7565b60405180910390f35b610264600480360381019061025f9190611bee565b6105e6565b6040516102719190611c5c565b60405180910390f35b610294600480360381019061028f9190611ca3565b610625565b005b6102b060048036038101906102ab9190611ce3565b610647565b005b6102cc60048036038101906102c79190611ca3565b61067d565b005b6102d66106f8565b005b6102e0610890565b6040516102ed9190611ba7565b60405180910390f35b610310600480360381019061030b9190611ce3565b6108b4565b60405161031d9190611b1a565b60405180910390f35b61032e6108cc565b005b61034a60048036038101906103459190611ce3565b6108e0565b6040516103579190611ae6565b60405180910390f35b610368610900565b6040516103759190611c5c565b60405180910390f35b61039860048036038101906103939190611ca3565b610929565b6040516103a59190611ae6565b60405180910390f35b6103b6610994565b005b6103d260048036038101906103cd9190611d10565b610afc565b6040516103df9190611b1a565b60405180910390f35b6103f0610b21565b6040516103fd9190611ba7565b60405180910390f35b610420600480360381019061041b9190611bee565b610b28565b60405161042d9190611b1a565b60405180910390f35b610450600480360381019061044b9190611bee565b610b40565b005b61046c60048036038101906104679190611bee565b610d9d565b005b61048860048036038101906104839190611ca3565b6110a9565b005b6104a4600480360381019061049f9190611ce3565b6110cb565b005b6104c060048036038101906104bb9190611d10565b611101565b6040516104cd9190611b1a565b60405180910390f35b6104f060048036038101906104eb9190611ce3565b611126565b005b6104fa6111ac565b6040516105079190611daf565b60405180910390f35b61052a60048036038101906105259190611bee565b6111d2565b6040516105379190611c5c565b60405180910390f35b60007f7965db0b000000000000000000000000000000000000000000000000000000007bffffffffffffffffffffffffffffffffffffffffffffffffffffffff1916827bffffffffffffffffffffffffffffffffffffffffffffffffffffffff191614806105b357506105b282611211565b5b9050919050565b600a5481565b600b5481565b600060016000838152602001908152602001600020600101549050919050565b600681815481106105f657600080fd5b906000526020600020016000915054906101000a900473ffffffffffffffffffffffffffffffffffffffff1681565b61062e826105c6565b6106378161127b565b610641838361128f565b50505050565b61064f611380565b6106797fdc4d902146794be661ef4fe230116fa914d3919dba626b607d78a983d28ba92c82611407565b5050565b6106856114fa565b73ffffffffffffffffffffffffffffffffffffffff168173ffffffffffffffffffffffffffffffffffffffff16146106e9576040517f6697b23200000000000000000000000000000000000000000000000000000000815260040160405180910390fd5b6106f38282611407565b505050565b6000600560003373ffffffffffffffffffffffffffffffffffffffff1673ffffffffffffffffffffffffffffffffffffffff1681526020019081526020016000206000600a54815260200190815260200160002054816107589190611df9565b9050600960003373ffffffffffffffffffffffffffffffffffffffff1673ffffffffffffffffffffffffffffffffffffffff16815260200190815260200160002054816107a59190611df9565b90506000600960003373ffffffffffffffffffffffffffffffffffffffff1673ffffffffffffffffffffffffffffffffffffffff16815260200190815260200160002081905550600260009054906101000a900473ffffffffffffffffffffffffffffffffffffffff1673ffffffffffffffffffffffffffffffffffffffff1663a9059cbb33836040518363ffffffff1660e01b8152600401610849929190611e2d565b6020604051808303816000875af1158015610868573d6000803e3d6000fd5b505050506040513d601f19601f8201168201806040525081019061088c9190611e82565b5050565b7fdc4d902146794be661ef4fe230116fa914d3919dba626b607d78a983d28ba92c81565b60096020528060005260406000206000915090505481565b6108d4611380565b6108de6000611502565b565b60086020528060005260406000206000915054906101000a900460ff1681565b60008060009054906101000a900473ffffffffffffffffffffffffffffffffffffffff16905090565b60006001600084815260200190815260200160002060000160008373ffffffffffffffffffffffffffffffffffffffff1673ffffffffffffffffffffffffffffffffffffffff16815260200190815260200160002060009054906101000a900460ff16905092915050565b7fdc4d902146794be661ef4fe230116fa914d3919dba626b607d78a983d28ba92c6109be8161127b565b600a5462093a806109cf9190611eaf565b600b546109dc9190611df9565b421015610a1e576040517f08c379a0000000000000000000000000000000000000000000000000000000008152600401610a1590611f4e565b60405180910390fd5b60076000610a2c9190611a03565b60006001600a54610a3d9190611df9565b905060005b600680549050811015610af05760006004600060068481548110610a6957610a68611f6e565b5b9060005260206000200160009054906101000a900473ffffffffffffffffffffffffffffffffffffffff1673ffffffffffffffffffffffffffffffffffffffff1673ffffffffffffffffffffffffffffffffffffffff1681526020019081526020016000206000848152602001908152602001600020819055508080600101915050610a42565b5080600a819055505050565b6004602052816000526040600020602052806000526040600020600091509150505481565b6000801b81565b60036020528060005260406000206000915090505481565b600260009054906101000a900473ffffffffffffffffffffffffffffffffffffffff1673ffffffffffffffffffffffffffffffffffffffff166323b872dd3330846040518463ffffffff1660e01b8152600401610b9f93929190611f9d565b6020604051808303816000875af1158015610bbe573d6000803e3d6000fd5b505050506040513d601f19601f82011682018060405250810190610be29190611e82565b5080600460003373ffffffffffffffffffffffffffffffffffffffff1673ffffffffffffffffffffffffffffffffffffffff1681526020019081526020016000206000600a5481526020019081526020016000206000828254610c459190611df9565b9250508190555080600960003373ffffffffffffffffffffffffffffffffffffffff1673ffffffffffffffffffffffffffffffffffffffff1681526020019081526020016000206000828254610c9b9190611df9565b92505081905550610d326006805480602002602001604051908101604052809291908181526020018280548015610d2757602002820191906000526020600020905b8160009054906101000a900473ffffffffffffffffffffffffffffffffffffffff1673ffffffffffffffffffffffffffffffffffffffff1681526020019060010190808311610cdd575b5050505050336115c6565b610d9a576006339080600181540180825580915050600190039060005260206000200160009091909190916101000a81548173ffffffffffffffffffffffffffffffffffffffff021916908373ffffffffffffffffffffffffffffffffffffffff1602179055505b50565b610da5611380565b600060036000600a5481526020019081526020016000205414610dfd576040517f08c379a0000000000000000000000000000000000000000000000000000000008152600401610df490612046565b60405180910390fd5b8060036000600a5481526020019081526020016000206000828254610e229190611df9565b92505081905550600260009054906101000a900473ffffffffffffffffffffffffffffffffffffffff1673ffffffffffffffffffffffffffffffffffffffff166323b872dd3330846040518463ffffffff1660e01b8152600401610e8893929190611f9d565b6020604051808303816000875af1158015610ea7573d6000803e3d6000fd5b505050506040513d601f19601f82011682018060405250810190610ecb9190611e82565b5060005b60068054905081101561109d57600060068281548110610ef257610ef1611f6e565b5b9060005260206000200160009054906101000a900473ffffffffffffffffffffffffffffffffffffffff1690506000600460008373ffffffffffffffffffffffffffffffffffffffff1673ffffffffffffffffffffffffffffffffffffffff1681526020019081526020016000206000600a54815260200190815260200160002054111561108f5760001515600860008373ffffffffffffffffffffffffffffffffffffffff1673ffffffffffffffffffffffffffffffffffffffff16815260200190815260200160002060009054906101000a900460ff1615150361108e576007819080600181540180825580915050600190039060005260206000200160009091909190916101000a81548173ffffffffffffffffffffffffffffffffffffffff021916908373ffffffffffffffffffffffffffffffffffffffff1602179055506001600860008373ffffffffffffffffffffffffffffffffffffffff1673ffffffffffffffffffffffffffffffffffffffff16815260200190815260200160002060006101000a81548160ff0219169083151502179055505b5b508080600101915050610ecf565b506110a6611647565b50565b6110b2826105c6565b6110bb8161127b565b6110c58383611407565b50505050565b6110d3611380565b6110fd7fdc4d902146794be661ef4fe230116fa914d3919dba626b607d78a983d28ba92c8261128f565b5050565b6005602052816000526040600020602052806000526040600020600091509150505481565b61112e611380565b600073ffffffffffffffffffffffffffffffffffffffff168173ffffffffffffffffffffffffffffffffffffffff16036111a05760006040517f1e4fbdf70000000000000000000000000000000000000000000000000000000081526004016111979190611c5c565b60405180910390fd5b6111a981611502565b50565b600260009054906101000a900473ffffffffffffffffffffffffffffffffffffffff1681565b600781815481106111e257600080fd5b906000526020600020016000915054906101000a900473ffffffffffffffffffffffffffffffffffffffff1681565b60007f01ffc9a7000000000000000000000000000000000000000000000000000000007bffffffffffffffffffffffffffffffffffffffffffffffffffffffff1916827bffffffffffffffffffffffffffffffffffffffffffffffffffffffff1916149050919050565b61128c816112876114fa565b6117aa565b50565b600061129b8383610929565b61137557600180600085815260200190815260200160002060000160008473ffffffffffffffffffffffffffffffffffffffff1673ffffffffffffffffffffffffffffffffffffffff16815260200190815260200160002060006101000a81548160ff0219169083151502179055506113126114fa565b73ffffffffffffffffffffffffffffffffffffffff168273ffffffffffffffffffffffffffffffffffffffff16847f2f8788117e7eff1d82e926ec794901d17c78024a50270940304540a733656f0d60405160405180910390a46001905061137a565b600090505b92915050565b6113886114fa565b73ffffffffffffffffffffffffffffffffffffffff166113a6610900565b73ffffffffffffffffffffffffffffffffffffffff1614611405576113c96114fa565b6040517f118cdaa70000000000000000000000000000000000000000000000000000000081526004016113fc9190611c5c565b60405180910390fd5b565b60006114138383610929565b156114ef5760006001600085815260200190815260200160002060000160008473ffffffffffffffffffffffffffffffffffffffff1673ffffffffffffffffffffffffffffffffffffffff16815260200190815260200160002060006101000a81548160ff02191690831515021790555061148c6114fa565b73ffffffffffffffffffffffffffffffffffffffff168273ffffffffffffffffffffffffffffffffffffffff16847ff6391f5c32d9c69d2a47ea670b442974b53935d1edc7fd64eb21e047a839171b60405160405180910390a4600190506114f4565b600090505b92915050565b600033905090565b60008060009054906101000a900473ffffffffffffffffffffffffffffffffffffffff169050816000806101000a81548173ffffffffffffffffffffffffffffffffffffffff021916908373ffffffffffffffffffffffffffffffffffffffff1602179055508173ffffffffffffffffffffffffffffffffffffffff168173ffffffffffffffffffffffffffffffffffffffff167f8be0079c531659141344cd1fd0a4f28419497f9722a3daafe3b4186f6b6457e060405160405180910390a35050565b600080600090505b835181101561163b578273ffffffffffffffffffffffffffffffffffffffff1684828151811061160157611600611f6e565b5b602002602001015173ffffffffffffffffffffffffffffffffffffffff160361162e576001915050611641565b80806001019150506115ce565b50600090505b92915050565b61164f611380565b60005b60068054905081101561178c5760006006828154811061167557611674611f6e565b5b9060005260206000200160009054906101000a900473ffffffffffffffffffffffffffffffffffffffff16905060006116b082600a546117fb565b9050600081111561177d5780600560008473ffffffffffffffffffffffffffffffffffffffff1673ffffffffffffffffffffffffffffffffffffffff1681526020019081526020016000206000600a548152602001908152602001600020600082825461171d9190611df9565b925050819055506000600860008473ffffffffffffffffffffffffffffffffffffffff1673ffffffffffffffffffffffffffffffffffffffff16815260200190815260200160002060006101000a81548160ff0219169083151502179055505b50508080600101915050611652565b50600060036000600a54815260200190815260200160002081905550565b6117b48282610929565b6117f75780826040517fe2517d3f0000000000000000000000000000000000000000000000000000000081526004016117ee929190612066565b60405180910390fd5b5050565b6000806000905060005b600780549050811015611899578473ffffffffffffffffffffffffffffffffffffffff166007828154811061183d5761183c611f6e565b5b9060005260206000200160009054906101000a900473ffffffffffffffffffffffffffffffffffffffff1673ffffffffffffffffffffffffffffffffffffffff160361188c5760019150611899565b8080600101915050611805565b50806118a95760009150506119fd565b6000600460008673ffffffffffffffffffffffffffffffffffffffff1673ffffffffffffffffffffffffffffffffffffffff16815260200190815260200160002060008581526020019081526020016000205490506000805b6007805490508110156119b857600460006007838154811061192757611926611f6e565b5b9060005260206000200160009054906101000a900473ffffffffffffffffffffffffffffffffffffffff1673ffffffffffffffffffffffffffffffffffffffff1673ffffffffffffffffffffffffffffffffffffffff168152602001908152602001600020600087815260200190815260200160002054826119a99190611df9565b91508080600101915050611902565b50600081036119cd57600093505050506119fd565b808260036000888152602001908152602001600020546119ed9190611eaf565b6119f791906120be565b93505050505b92915050565b5080546000825590600052602060002090810190611a219190611a24565b50565b5b80821115611a3d576000816000905550600101611a25565b5090565b600080fd5b60007fffffffff0000000000000000000000000000000000000000000000000000000082169050919050565b611a7b81611a46565b8114611a8657600080fd5b50565b600081359050611a9881611a72565b92915050565b600060208284031215611ab457611ab3611a41565b5b6000611ac284828501611a89565b91505092915050565b60008115159050919050565b611ae081611acb565b82525050565b6000602082019050611afb6000830184611ad7565b92915050565b6000819050919050565b611b1481611b01565b82525050565b6000602082019050611b2f6000830184611b0b565b92915050565b6000819050919050565b611b4881611b35565b8114611b5357600080fd5b50565b600081359050611b6581611b3f565b92915050565b600060208284031215611b8157611b80611a41565b5b6000611b8f84828501611b56565b91505092915050565b611ba181611b35565b82525050565b6000602082019050611bbc6000830184611b98565b92915050565b611bcb81611b01565b8114611bd657600080fd5b50565b600081359050611be881611bc2565b92915050565b600060208284031215611c0457611c03611a41565b5b6000611c1284828501611bd9565b91505092915050565b600073ffffffffffffffffffffffffffffffffffffffff82169050919050565b6000611c4682611c1b565b9050919050565b611c5681611c3b565b82525050565b6000602082019050611c716000830184611c4d565b92915050565b611c8081611c3b565b8114611c8b57600080fd5b50565b600081359050611c9d81611c77565b92915050565b60008060408385031215611cba57611cb9611a41565b5b6000611cc885828601611b56565b9250506020611cd985828601611c8e565b9150509250929050565b600060208284031215611cf957611cf8611a41565b5b6000611d0784828501611c8e565b91505092915050565b60008060408385031215611d2757611d26611a41565b5b6000611d3585828601611c8e565b9250506020611d4685828601611bd9565b9150509250929050565b6000819050919050565b6000611d75611d70611d6b84611c1b565b611d50565b611c1b565b9050919050565b6000611d8782611d5a565b9050919050565b6000611d9982611d7c565b9050919050565b611da981611d8e565b82525050565b6000602082019050611dc46000830184611da0565b92915050565b7f4e487b7100000000000000000000000000000000000000000000000000000000600052601160045260246000fd5b6000611e0482611b01565b9150611e0f83611b01565b9250828201905080821115611e2757611e26611dca565b5b92915050565b6000604082019050611e426000830185611c4d565b611e4f6020830184611b0b565b9392505050565b611e5f81611acb565b8114611e6a57600080fd5b50565b600081519050611e7c81611e56565b92915050565b600060208284031215611e9857611e97611a41565b5b6000611ea684828501611e6d565b91505092915050565b6000611eba82611b01565b9150611ec583611b01565b9250828202611ed381611b01565b91508282048414831517611eea57611ee9611dca565b5b5092915050565b600082825260208201905092915050565b7f41207765656b20686173206e6f7420796574207061737365642e000000000000600082015250565b6000611f38601a83611ef1565b9150611f4382611f02565b602082019050919050565b60006020820190508181036000830152611f6781611f2b565b9050919050565b7f4e487b7100000000000000000000000000000000000000000000000000000000600052603260045260246000fd5b6000606082019050611fb26000830186611c4d565b611fbf6020830185611c4d565b611fcc6040830184611b0b565b949350505050565b7f5265776172647320616c726561647920616464656420666f722074686973207760008201527f65656b0000000000000000000000000000000000000000000000000000000000602082015250565b6000612030602383611ef1565b915061203b82611fd4565b604082019050919050565b6000602082019050818103600083015261205f81612023565b9050919050565b600060408201905061207b6000830185611c4d565b6120886020830184611b98565b9392505050565b7f4e487b7100000000000000000000000000000000000000000000000000000000600052601260045260246000fd5b60006120c982611b01565b91506120d483611b01565b9250826120e4576120e361208f565b5b82820490509291505056fea2646970667358221220e1a62acb14d604f95e66a9297c162b96af3edf7865c228c1b813e9a85273be2b64736f6c63430008180033",
  "linkReferences": {},
  "deployedLinkReferences": {}
}