{
  "_format": "hh-sol-artifact-1",
  "contractName": "STLToken",
  "sourceName": "contracts/STLToken.sol",
  "abi": [
    {
      "inputs": [],
      "stateMutability": "nonpayable",
      "type": "constructor"
    },
    {
      "inputs": [],
      "name": "AccessControlBadConfirmation",
      "type": "error"
    },
    {
      "inputs": [
        {
          "internalType": "address",
          "name": "account",
          "type": "address"
        },
        {
          "internalType": "bytes32",
          "name": "neededRole",
          "type": "bytes32"
        }
      ],
      "name": "AccessControlUnauthorizedAccount",
      "type": "error"
    },
    {
      "inputs": [],
      "name": "ECDSAInvalidSignature",
      "type": "error"
    },
    {
      "inputs": [
        {
          "internalType": "uint256",
          "name": "length",
          "type": "uint256"
        }
      ],
      "name": "ECDSAInvalidSignatureLength",
      "type": "error"
    },
    {
      "inputs": [
        {
          "internalType": "bytes32",
          "name": "s",
          "type": "bytes32"
        }
      ],
      "name": "ECDSAInvalidSignatureS",
      "type": "error"
    },
    {
      "inputs": [
        {
          "internalType": "address",
          "name": "spender",
          "type": "address"
        },
        {
          "internalType": "uint256",
          "name": "allowance",
          "type": "uint256"
        },
        {
          "internalType": "uint256",
          "name": "needed",
          "type": "uint256"
        }
      ],
      "name": "ERC20InsufficientAllowance",
      "type": "error"
    },
    {
      "inputs": [
        {
          "internalType": "address",
          "name": "sender",
          "type": "address"
        },
        {
          "internalType": "uint256",
          "name": "balance",
          "type": "uint256"
        },
        {
          "internalType": "uint256",
          "name": "needed",
          "type": "uint256"
        }
      ],
      "name": "ERC20InsufficientBalance",
      "type": "error"
    },
    {
      "inputs": [
        {
          "internalType": "address",
          "name": "approver",
          "type": "address"
        }
      ],
      "name": "ERC20InvalidApprover",
      "type": "error"
    },
    {
      "inputs": [
        {
          "internalType": "address",
          "name": "receiver",
          "type": "address"
        }
      ],
      "name": "ERC20InvalidReceiver",
      "type": "error"
    },
    {
      "inputs": [
        {
          "internalType": "address",
          "name": "sender",
          "type": "address"
        }
      ],
      "name": "ERC20InvalidSender",
      "type": "error"
    },
    {
      "inputs": [
        {
          "internalType": "address",
          "name": "spender",
          "type": "address"
        }
      ],
      "name": "ERC20InvalidSpender",
      "type": "error"
    },
    {
      "inputs": [
        {
          "internalType": "uint256",
          "name": "deadline",
          "type": "uint256"
        }
      ],
      "name": "ERC2612ExpiredSignature",
      "type": "error"
    },
    {
      "inputs": [
        {
          "internalType": "address",
          "name": "signer",
          "type": "address"
        },
        {
          "internalType": "address",
          "name": "owner",
          "type": "address"
        }
      ],
      "name": "ERC2612InvalidSigner",
      "type": "error"
    },
    {
      "inputs": [
        {
          "internalType": "address",
          "name": "account",
          "type": "address"
        },
        {
          "internalType": "uint256",
          "name": "currentNonce",
          "type": "uint256"
        }
      ],
      "name": "InvalidAccountNonce",
      "type": "error"
    },
    {
      "inputs": [],
      "name": "InvalidShortString",
      "type": "error"
    },
    {
      "inputs": [
        {
          "internalType": "string",
          "name": "str",
          "type": "string"
        }
      ],
      "name": "StringTooLong",
      "type": "error"
    },
    {
      "anonymous": false,
      "inputs": [
        {
          "indexed": true,
          "internalType": "address",
          "name": "owner",
          "type": "address"
        },
        {
          "indexed": true,
          "internalType": "address",
          "name": "spender",
          "type": "address"
        },
        {
          "indexed": false,
          "internalType": "uint256",
          "name": "value",
          "type": "uint256"
        }
      ],
      "name": "Approval",
      "type": "event"
    },
    {
      "anonymous": false,
      "inputs": [],
      "name": "EIP712DomainChanged",
      "type": "event"
    },
    {
      "anonymous": false,
      "inputs": [
        {
          "indexed": true,
          "internalType": "bytes32",
          "name": "role",
          "type": "bytes32"
        },
        {
          "indexed": true,
          "internalType": "bytes32",
          "name": "previousAdminRole",
          "type": "bytes32"
        },
        {
          "indexed": true,
          "internalType": "bytes32",
          "name": "newAdminRole",
          "type": "bytes32"
        }
      ],
      "name": "RoleAdminChanged",
      "type": "event"
    },
    {
      "anonymous": false,
      "inputs": [
        {
          "indexed": true,
          "internalType": "bytes32",
          "name": "role",
          "type": "bytes32"
        },
        {
          "indexed": true,
          "internalType": "address",
          "name": "account",
          "type": "address"
        },
        {
          "indexed": true,
          "internalType": "address",
          "name": "sender",
          "type": "address"
        }
      ],
      "name": "RoleGranted",
      "type": "event"
    },
    {
      "anonymous": false,
      "inputs": [
        {
          "indexed": true,
          "internalType": "bytes32",
          "name": "role",
          "type": "bytes32"
        },
        {
          "indexed": true,
          "internalType": "address",
          "name": "account",
          "type": "address"
        },
        {
          "indexed": true,
          "internalType": "address",
          "name": "sender",
          "type": "address"
        }
      ],
      "name": "RoleRevoked",
      "type": "event"
    },
    {
      "anonymous": false,
      "inputs": [
        {
          "indexed": true,
          "internalType": "address",
          "name": "from",
          "type": "address"
        },
        {
          "indexed": true,
          "internalType": "address",
          "name": "to",
          "type": "address"
        },
        {
          "indexed": false,
          "internalType": "uint256",
          "name": "value",
          "type": "uint256"
        }
      ],
      "name": "Transfer",
      "type": "event"
    },
    {
      "inputs": [],
      "name": "DEFAULT_ADMIN_ROLE",
      "outputs": [
        {
          "internalType": "bytes32",
          "name": "",
          "type": "bytes32"
        }
      ],
      "stateMutability": "view",
      "type": "function"
    },
    {
      "inputs": [],
      "name": "DOMAIN_SEPARATOR",
      "outputs": [
        {
          "internalType": "bytes32",
          "name": "",
          "type": "bytes32"
        }
      ],
      "stateMutability": "view",
      "type": "function"
    },
    {
      "inputs": [],
      "name": "MINTER_ROLE",
      "outputs": [
        {
          "internalType": "bytes32",
          "name": "",
          "type": "bytes32"
        }
      ],
      "stateMutability": "view",
      "type": "function"
    },
    {
      "inputs": [
        {
          "internalType": "address",
          "name": "owner",
          "type": "address"
        },
        {
          "internalType": "address",
          "name": "spender",
          "type": "address"
        }
      ],
      "name": "allowance",
      "outputs": [
        {
          "internalType": "uint256",
          "name": "",
          "type": "uint256"
        }
      ],
      "stateMutability": "view",
      "type": "function"
    },
    {
      "inputs": [
        {
          "internalType": "address",
          "name": "spender",
          "type": "address"
        },
        {
          "internalType": "uint256",
          "name": "value",
          "type": "uint256"
        }
      ],
      "name": "approve",
      "outputs": [
        {
          "internalType": "bool",
          "name": "",
          "type": "bool"
        }
      ],
      "stateMutability": "nonpayable",
      "type": "function"
    },
    {
      "inputs": [
        {
          "internalType": "address",
          "name": "account",
          "type": "address"
        }
      ],
      "name": "balanceOf",
      "outputs": [
        {
          "internalType": "uint256",
          "name": "",
          "type": "uint256"
        }
      ],
      "stateMutability": "view",
      "type": "function"
    },
    {
      "inputs": [],
      "name": "decimals",
      "outputs": [
        {
          "internalType": "uint8",
          "name": "",
          "type": "uint8"
        }
      ],
      "stateMutability": "view",
      "type": "function"
    },
    {
      "inputs": [],
      "name": "eip712Domain",
      "outputs": [
        {
          "internalType": "bytes1",
          "name": "fields",
          "type": "bytes1"
        },
        {
          "internalType": "string",
          "name": "name",
          "type": "string"
        },
        {
          "internalType": "string",
          "name": "version",
          "type": "string"
        },
        {
          "internalType": "uint256",
          "name": "chainId",
          "type": "uint256"
        },
        {
          "internalType": "address",
          "name": "verifyingContract",
          "type": "address"
        },
        {
          "internalType": "bytes32",
          "name": "salt",
          "type": "bytes32"
        },
        {
          "internalType": "uint256[]",
          "name": "extensions",
          "type": "uint256[]"
        }
      ],
      "stateMutability": "view",
      "type": "function"
    },
    {
      "inputs": [
        {
          "internalType": "bytes32",
          "name": "role",
          "type": "bytes32"
        }
      ],
      "name": "getRoleAdmin",
      "outputs": [
        {
          "internalType": "bytes32",
          "name": "",
          "type": "bytes32"
        }
      ],
      "stateMutability": "view",
      "type": "function"
    },
    {
      "inputs": [
        {
          "internalType": "bytes32",
          "name": "role",
          "type": "bytes32"
        },
        {
          "internalType": "address",
          "name": "account",
          "type": "address"
        }
      ],
      "name": "grantRole",
      "outputs": [],
      "stateMutability": "nonpayable",
      "type": "function"
    },
    {
      "inputs": [
        {
          "internalType": "bytes32",
          "name": "role",
          "type": "bytes32"
        },
        {
          "internalType": "address",
          "name": "account",
          "type": "address"
        }
      ],
      "name": "hasRole",
      "outputs": [
        {
          "internalType": "bool",
          "name": "",
          "type": "bool"
        }
      ],
      "stateMutability": "view",
      "type": "function"
    },
    {
      "inputs": [
        {
          "internalType": "address",
          "name": "to",
          "type": "address"
        },
        {
          "internalType": "uint256",
          "name": "amount",
          "type": "uint256"
        }
      ],
      "name": "mint",
      "outputs": [],
      "stateMutability": "nonpayable",
      "type": "function"
    },
    {
      "inputs": [],
      "name": "name",
      "outputs": [
        {
          "internalType": "string",
          "name": "",
          "type": "string"
        }
      ],
      "stateMutability": "view",
      "type": "function"
    },
    {
      "inputs": [
        {
          "internalType": "address",
          "name": "owner",
          "type": "address"
        }
      ],
      "name": "nonces",
      "outputs": [
        {
          "internalType": "uint256",
          "name": "",
          "type": "uint256"
        }
      ],
      "stateMutability": "view",
      "type": "function"
    },
    {
      "inputs": [
        {
          "internalType": "address",
          "name": "owner",
          "type": "address"
        },
        {
          "internalType": "address",
          "name": "spender",
          "type": "address"
        },
        {
          "internalType": "uint256",
          "name": "value",
          "type": "uint256"
        },
        {
          "internalType": "uint256",
          "name": "deadline",
          "type": "uint256"
        },
        {
          "internalType": "uint8",
          "name": "v",
          "type": "uint8"
        },
        {
          "internalType": "bytes32",
          "name": "r",
          "type": "bytes32"
        },
        {
          "internalType": "bytes32",
          "name": "s",
          "type": "bytes32"
        }
      ],
      "name": "permit",
      "outputs": [],
      "stateMutability": "nonpayable",
      "type": "function"
    },
    {
      "inputs": [
        {
          "internalType": "bytes32",
          "name": "role",
          "type": "bytes32"
        },
        {
          "internalType": "address",
          "name": "callerConfirmation",
          "type": "address"
        }
      ],
      "name": "renounceRole",
      "outputs": [],
      "stateMutability": "nonpayable",
      "type": "function"
    },
    {
      "inputs": [
        {
          "internalType": "bytes32",
          "name": "role",
          "type": "bytes32"
        },
        {
          "internalType": "address",
          "name": "account",
          "type": "address"
        }
      ],
      "name": "revokeRole",
      "outputs": [],
      "stateMutability": "nonpayable",
      "type": "function"
    },
    {
      "inputs": [
        {
          "internalType": "bytes4",
          "name": "interfaceId",
          "type": "bytes4"
        }
      ],
      "name": "supportsInterface",
      "outputs": [
        {
          "internalType": "bool",
          "name": "",
          "type": "bool"
        }
      ],
      "stateMutability": "view",
      "type": "function"
    },
    {
      "inputs": [],
      "name": "symbol",
      "outputs": [
        {
          "internalType": "string",
          "name": "",
          "type": "string"
        }
      ],
      "stateMutability": "view",
      "type": "function"
    },
    {
      "inputs": [],
      "name": "totalSupply",
      "outputs": [
        {
          "internalType": "uint256",
          "name": "",
          "type": "uint256"
        }
      ],
      "stateMutability": "view",
      "type": "function"
    },
    {
      "inputs": [
        {
          "internalType": "address",
          "name": "to",
          "type": "address"
        },
        {
          "internalType": "uint256",
          "name": "value",
          "type": "uint256"
        }
      ],
      "name": "transfer",
      "outputs": [
        {
          "internalType": "bool",
          "name": "",
          "type": "bool"
        }
      ],
      "stateMutability": "nonpayable",
      "type": "function"
    },
    {
      "inputs": [
        {
          "internalType": "address",
          "name": "from",
          "type": "address"
        },
        {
          "internalType": "address",
          "name": "to",
          "type": "address"
        },
        {
          "internalType": "uint256",
          "name": "value",
          "type": "uint256"
        }
      ],
      "name": "transferFrom",
      "outputs": [
        {
          "internalType": "bool",
          "name": "",
          "type": "bool"
        }
      ],
      "stateMutability": "nonpayable",
      "type": "function"
    }
  ],
  "bytecode": "0x6101606040523480156200001257600080fd5b506040518060400160405280600881526020017f53544c546f6b656e000000000000000000000000000000000000000000000000815250806040518060400160405280600181526020017f31000000000000000000000000000000000000000000000000000000000000008152506040518060400160405280600881526020017f53544c546f6b656e0000000000000000000000000000000000000000000000008152506040518060400160405280600381526020017f53544c00000000000000000000000000000000000000000000000000000000008152508160039081620000fd919062000719565b5080600490816200010f919062000719565b50505062000128600683620001fc60201b90919060201c565b610120818152505062000146600782620001fc60201b90919060201c565b6101408181525050818051906020012060e08181525050808051906020012061010081815250504660a08181525050620001856200025460201b60201c565b608081815250503073ffffffffffffffffffffffffffffffffffffffff1660c08173ffffffffffffffffffffffffffffffffffffffff1681525050505050620001f57f9f2df0fed2c77648de5860a4cc508cd0818c85b8b8a1ab4ceeef8d981c8956a633620002b160201b60201c565b5062000a23565b600060208351101562000222576200021a83620003b560201b60201c565b90506200024e565b8262000234836200042260201b60201c565b600001908162000245919062000719565b5060ff60001b90505b92915050565b60007f8b73c3c69bb8fe3d512ecc4cf759cc79239f7b179b0ffacaa9a75d522b39400f60e0516101005146306040516020016200029695949392919062000871565b60405160208183030381529060405280519060200120905090565b6000620002c583836200042c60201b60201c565b620003aa5760016005600085815260200190815260200160002060000160008473ffffffffffffffffffffffffffffffffffffffff1673ffffffffffffffffffffffffffffffffffffffff16815260200190815260200160002060006101000a81548160ff021916908315150217905550620003466200049760201b60201c565b73ffffffffffffffffffffffffffffffffffffffff168273ffffffffffffffffffffffffffffffffffffffff16847f2f8788117e7eff1d82e926ec794901d17c78024a50270940304540a733656f0d60405160405180910390a460019050620003af565b600090505b92915050565b600080829050601f815111156200040557826040517f305a27a9000000000000000000000000000000000000000000000000000000008152600401620003fc91906200095d565b60405180910390fd5b8051816200041390620009b3565b60001c1760001b915050919050565b6000819050919050565b60006005600084815260200190815260200160002060000160008373ffffffffffffffffffffffffffffffffffffffff1673ffffffffffffffffffffffffffffffffffffffff16815260200190815260200160002060009054906101000a900460ff16905092915050565b600033905090565b600081519050919050565b7f4e487b7100000000000000000000000000000000000000000000000000000000600052604160045260246000fd5b7f4e487b7100000000000000000000000000000000000000000000000000000000600052602260045260246000fd5b600060028204905060018216806200052157607f821691505b602082108103620005375762000536620004d9565b5b50919050565b60008190508160005260206000209050919050565b60006020601f8301049050919050565b600082821b905092915050565b600060088302620005a17fffffffffffffffffffffffffffffffffffffffffffffffffffffffffffffffff8262000562565b620005ad868362000562565b95508019841693508086168417925050509392505050565b6000819050919050565b6000819050919050565b6000620005fa620005f4620005ee84620005c5565b620005cf565b620005c5565b9050919050565b6000819050919050565b6200061683620005d9565b6200062e620006258262000601565b8484546200056f565b825550505050565b600090565b6200064562000636565b620006528184846200060b565b505050565b5b818110156200067a576200066e6000826200063b565b60018101905062000658565b5050565b601f821115620006c95762000693816200053d565b6200069e8462000552565b81016020851015620006ae578190505b620006c6620006bd8562000552565b83018262000657565b50505b505050565b600082821c905092915050565b6000620006ee60001984600802620006ce565b1980831691505092915050565b6000620007098383620006db565b9150826002028217905092915050565b62000724826200049f565b67ffffffffffffffff81111562000740576200073f620004aa565b5b6200074c825462000508565b620007598282856200067e565b600060209050601f8311600181146200079157600084156200077c578287015190505b620007888582620006fb565b865550620007f8565b601f198416620007a1866200053d565b60005b82811015620007cb57848901518255600182019150602085019450602081019050620007a4565b86831015620007eb5784890151620007e7601f891682620006db565b8355505b6001600288020188555050505b505050505050565b6000819050919050565b620008158162000800565b82525050565b6200082681620005c5565b82525050565b600073ffffffffffffffffffffffffffffffffffffffff82169050919050565b600062000859826200082c565b9050919050565b6200086b816200084c565b82525050565b600060a0820190506200088860008301886200080a565b6200089760208301876200080a565b620008a660408301866200080a565b620008b560608301856200081b565b620008c4608083018462000860565b9695505050505050565b600082825260208201905092915050565b60005b83811015620008ff578082015181840152602081019050620008e2565b60008484015250505050565b6000601f19601f8301169050919050565b600062000929826200049f565b620009358185620008ce565b935062000947818560208601620008df565b62000952816200090b565b840191505092915050565b600060208201905081810360008301526200097981846200091c565b905092915050565b600081519050919050565b6000819050602082019050919050565b6000620009aa825162000800565b80915050919050565b6000620009c08262000981565b82620009cc846200098c565b9050620009d9816200099c565b9250602082101562000a1c5762000a177fffffffffffffffffffffffffffffffffffffffffffffffffffffffffffffffff8360200360080262000562565b831692505b5050919050565b60805160a05160c05160e05161010051610120516101405161243f62000a7e60003960006110fa015260006110bf015260006116600152600061163f01526000610e4501526000610e9b01526000610ec4015261243f6000f3fe608060405234801561001057600080fd5b50600436106101425760003560e01c806370a08231116100b8578063a217fddf1161007c578063a217fddf146103a5578063a9059cbb146103c3578063d505accf146103f3578063d53913931461040f578063d547741f1461042d578063dd62ed3e1461044957610142565b806370a08231146102d35780637ecebe001461030357806384b0196e1461033357806391d148541461035757806395d89b411461038757610142565b8063248a9ca31161010a578063248a9ca3146102135780632f2ff15d14610243578063313ce5671461025f5780633644e5151461027d57806336568abe1461029b57806340c10f19146102b757610142565b806301ffc9a71461014757806306fdde0314610177578063095ea7b31461019557806318160ddd146101c557806323b872dd146101e3575b600080fd5b610161600480360381019061015c9190611b1a565b610479565b60405161016e9190611b62565b60405180910390f35b61017f6104f3565b60405161018c9190611c0d565b60405180910390f35b6101af60048036038101906101aa9190611cc3565b610585565b6040516101bc9190611b62565b60405180910390f35b6101cd6105a8565b6040516101da9190611d12565b60405180910390f35b6101fd60048036038101906101f89190611d2d565b6105b2565b60405161020a9190611b62565b60405180910390f35b61022d60048036038101906102289190611db6565b6105e1565b60405161023a9190611df2565b60405180910390f35b61025d60048036038101906102589190611e0d565b610601565b005b610267610623565b6040516102749190611e69565b60405180910390f35b61028561062c565b6040516102929190611df2565b60405180910390f35b6102b560048036038101906102b09190611e0d565b61063b565b005b6102d160048036038101906102cc9190611cc3565b6106b6565b005b6102ed60048036038101906102e89190611e84565b6106ef565b6040516102fa9190611d12565b60405180910390f35b61031d60048036038101906103189190611e84565b610737565b60405161032a9190611d12565b60405180910390f35b61033b610749565b60405161034e9796959493929190611fb9565b60405180910390f35b610371600480360381019061036c9190611e0d565b6107f3565b60405161037e9190611b62565b60405180910390f35b61038f61085e565b60405161039c9190611c0d565b60405180910390f35b6103ad6108f0565b6040516103ba9190611df2565b60405180910390f35b6103dd60048036038101906103d89190611cc3565b6108f7565b6040516103ea9190611b62565b60405180910390f35b61040d60048036038101906104089190612069565b61091a565b005b610417610a62565b6040516104249190611df2565b60405180910390f35b61044760048036038101906104429190611e0d565b610a86565b005b610463600480360381019061045e919061210b565b610aa8565b6040516104709190611d12565b60405180910390f35b60007f7965db0b000000000000000000000000000000000000000000000000000000007bffffffffffffffffffffffffffffffffffffffffffffffffffffffff1916827bffffffffffffffffffffffffffffffffffffffffffffffffffffffff191614806104ec57506104eb82610b2f565b5b9050919050565b6060600380546105029061217a565b80601f016020809104026020016040519081016040528092919081815260200182805461052e9061217a565b801561057b5780601f106105505761010080835404028352916020019161057b565b820191906000526020600020905b81548152906001019060200180831161055e57829003601f168201915b5050505050905090565b600080610590610b99565b905061059d818585610ba1565b600191505092915050565b6000600254905090565b6000806105bd610b99565b90506105ca858285610bb3565b6105d5858585610c47565b60019150509392505050565b600060056000838152602001908152602001600020600101549050919050565b61060a826105e1565b61061381610d3b565b61061d8383610d4f565b50505050565b60006012905090565b6000610636610e41565b905090565b610643610b99565b73ffffffffffffffffffffffffffffffffffffffff168173ffffffffffffffffffffffffffffffffffffffff16146106a7576040517f6697b23200000000000000000000000000000000000000000000000000000000815260040160405180910390fd5b6106b18282610ef8565b505050565b7f9f2df0fed2c77648de5860a4cc508cd0818c85b8b8a1ab4ceeef8d981c8956a66106e081610d3b565b6106ea8383610feb565b505050565b60008060008373ffffffffffffffffffffffffffffffffffffffff1673ffffffffffffffffffffffffffffffffffffffff168152602001908152602001600020549050919050565b60006107428261106d565b9050919050565b60006060806000806000606061075d6110b6565b6107656110f1565b46306000801b600067ffffffffffffffff811115610786576107856121ab565b5b6040519080825280602002602001820160405280156107b45781602001602082028036833780820191505090505b507f0f00000000000000000000000000000000000000000000000000000000000000959493929190965096509650965096509650965090919293949596565b60006005600084815260200190815260200160002060000160008373ffffffffffffffffffffffffffffffffffffffff1673ffffffffffffffffffffffffffffffffffffffff16815260200190815260200160002060009054906101000a900460ff16905092915050565b60606004805461086d9061217a565b80601f01602080910402602001604051908101604052809291908181526020018280546108999061217a565b80156108e65780601f106108bb576101008083540402835291602001916108e6565b820191906000526020600020905b8154815290600101906020018083116108c957829003601f168201915b5050505050905090565b6000801b81565b600080610902610b99565b905061090f818585610c47565b600191505092915050565b8342111561095f57836040517f627913020000000000000000000000000000000000000000000000000000000081526004016109569190611d12565b60405180910390fd5b60007f6e71edae12b1b97f4d1f60370fef10105fa2faae0126114a169c64845d6126c988888861098e8c61112c565b896040516020016109a4969594939291906121da565b60405160208183030381529060405280519060200120905060006109c782611183565b905060006109d78287878761119d565b90508973ffffffffffffffffffffffffffffffffffffffff168173ffffffffffffffffffffffffffffffffffffffff1614610a4b57808a6040517f4b800e46000000000000000000000000000000000000000000000000000000008152600401610a4292919061223b565b60405180910390fd5b610a568a8a8a610ba1565b50505050505050505050565b7f9f2df0fed2c77648de5860a4cc508cd0818c85b8b8a1ab4ceeef8d981c8956a681565b610a8f826105e1565b610a9881610d3b565b610aa28383610ef8565b50505050565b6000600160008473ffffffffffffffffffffffffffffffffffffffff1673ffffffffffffffffffffffffffffffffffffffff16815260200190815260200160002060008373ffffffffffffffffffffffffffffffffffffffff1673ffffffffffffffffffffffffffffffffffffffff16815260200190815260200160002054905092915050565b60007f01ffc9a7000000000000000000000000000000000000000000000000000000007bffffffffffffffffffffffffffffffffffffffffffffffffffffffff1916827bffffffffffffffffffffffffffffffffffffffffffffffffffffffff1916149050919050565b600033905090565b610bae83838360016111cd565b505050565b6000610bbf8484610aa8565b90507fffffffffffffffffffffffffffffffffffffffffffffffffffffffffffffffff8114610c415781811015610c31578281836040517ffb8f41b2000000000000000000000000000000000000000000000000000000008152600401610c2893929190612264565b60405180910390fd5b610c40848484840360006111cd565b5b50505050565b600073ffffffffffffffffffffffffffffffffffffffff168373ffffffffffffffffffffffffffffffffffffffff1603610cb95760006040517f96c6fd1e000000000000000000000000000000000000000000000000000000008152600401610cb0919061229b565b60405180910390fd5b600073ffffffffffffffffffffffffffffffffffffffff168273ffffffffffffffffffffffffffffffffffffffff1603610d2b5760006040517fec442f05000000000000000000000000000000000000000000000000000000008152600401610d22919061229b565b60405180910390fd5b610d368383836113a4565b505050565b610d4c81610d47610b99565b6115c9565b50565b6000610d5b83836107f3565b610e365760016005600085815260200190815260200160002060000160008473ffffffffffffffffffffffffffffffffffffffff1673ffffffffffffffffffffffffffffffffffffffff16815260200190815260200160002060006101000a81548160ff021916908315150217905550610dd3610b99565b73ffffffffffffffffffffffffffffffffffffffff168273ffffffffffffffffffffffffffffffffffffffff16847f2f8788117e7eff1d82e926ec794901d17c78024a50270940304540a733656f0d60405160405180910390a460019050610e3b565b600090505b92915050565b60007f000000000000000000000000000000000000000000000000000000000000000073ffffffffffffffffffffffffffffffffffffffff163073ffffffffffffffffffffffffffffffffffffffff16148015610ebd57507f000000000000000000000000000000000000000000000000000000000000000046145b15610eea577f00000000000000000000000000000000000000000000000000000000000000009050610ef5565b610ef261161a565b90505b90565b6000610f0483836107f3565b15610fe05760006005600085815260200190815260200160002060000160008473ffffffffffffffffffffffffffffffffffffffff1673ffffffffffffffffffffffffffffffffffffffff16815260200190815260200160002060006101000a81548160ff021916908315150217905550610f7d610b99565b73ffffffffffffffffffffffffffffffffffffffff168273ffffffffffffffffffffffffffffffffffffffff16847ff6391f5c32d9c69d2a47ea670b442974b53935d1edc7fd64eb21e047a839171b60405160405180910390a460019050610fe5565b600090505b92915050565b600073ffffffffffffffffffffffffffffffffffffffff168273ffffffffffffffffffffffffffffffffffffffff160361105d5760006040517fec442f05000000000000000000000000000000000000000000000000000000008152600401611054919061229b565b60405180910390fd5b611069600083836113a4565b5050565b6000600860008373ffffffffffffffffffffffffffffffffffffffff1673ffffffffffffffffffffffffffffffffffffffff168152602001908152602001600020549050919050565b60606110ec60067f00000000000000000000000000000000000000000000000000000000000000006116b090919063ffffffff16565b905090565b606061112760077f00000000000000000000000000000000000000000000000000000000000000006116b090919063ffffffff16565b905090565b6000600860008373ffffffffffffffffffffffffffffffffffffffff1673ffffffffffffffffffffffffffffffffffffffff1681526020019081526020016000206000815480929190600101919050559050919050565b6000611196611190610e41565b83611760565b9050919050565b6000806000806111af888888886117a1565b9250925092506111bf8282611895565b829350505050949350505050565b600073ffffffffffffffffffffffffffffffffffffffff168473ffffffffffffffffffffffffffffffffffffffff160361123f5760006040517fe602df05000000000000000000000000000000000000000000000000000000008152600401611236919061229b565b60405180910390fd5b600073ffffffffffffffffffffffffffffffffffffffff168373ffffffffffffffffffffffffffffffffffffffff16036112b15760006040517f94280d620000000000000000000000000000000000000000000000000000000081526004016112a8919061229b565b60405180910390fd5b81600160008673ffffffffffffffffffffffffffffffffffffffff1673ffffffffffffffffffffffffffffffffffffffff16815260200190815260200160002060008573ffffffffffffffffffffffffffffffffffffffff1673ffffffffffffffffffffffffffffffffffffffff16815260200190815260200160002081905550801561139e578273ffffffffffffffffffffffffffffffffffffffff168473ffffffffffffffffffffffffffffffffffffffff167f8c5be1e5ebec7d5bd14f71427d1e84f3dd0314c0f7b2291e5b200ac8c7c3b925846040516113959190611d12565b60405180910390a35b50505050565b600073ffffffffffffffffffffffffffffffffffffffff168373ffffffffffffffffffffffffffffffffffffffff16036113f65780600260008282546113ea91906122e5565b925050819055506114c9565b60008060008573ffffffffffffffffffffffffffffffffffffffff1673ffffffffffffffffffffffffffffffffffffffff16815260200190815260200160002054905081811015611482578381836040517fe450d38c00000000000000000000000000000000000000000000000000000000815260040161147993929190612264565b60405180910390fd5b8181036000808673ffffffffffffffffffffffffffffffffffffffff1673ffffffffffffffffffffffffffffffffffffffff16815260200190815260200160002081905550505b600073ffffffffffffffffffffffffffffffffffffffff168273ffffffffffffffffffffffffffffffffffffffff1603611512578060026000828254039250508190555061155f565b806000808473ffffffffffffffffffffffffffffffffffffffff1673ffffffffffffffffffffffffffffffffffffffff168152602001908152602001600020600082825401925050819055505b8173ffffffffffffffffffffffffffffffffffffffff168373ffffffffffffffffffffffffffffffffffffffff167fddf252ad1be2c89b69c2b068fc378daa952ba7f163c4a11628f55a4df523b3ef836040516115bc9190611d12565b60405180910390a3505050565b6115d382826107f3565b6116165780826040517fe2517d3f00000000000000000000000000000000000000000000000000000000815260040161160d929190612319565b60405180910390fd5b5050565b60007f8b73c3c69bb8fe3d512ecc4cf759cc79239f7b179b0ffacaa9a75d522b39400f7f00000000000000000000000000000000000000000000000000000000000000007f00000000000000000000000000000000000000000000000000000000000000004630604051602001611695959493929190612342565b60405160208183030381529060405280519060200120905090565b606060ff60001b83146116cd576116c6836119f9565b905061175a565b8180546116d99061217a565b80601f01602080910402602001604051908101604052809291908181526020018280546117059061217a565b80156117525780601f1061172757610100808354040283529160200191611752565b820191906000526020600020905b81548152906001019060200180831161173557829003601f168201915b505050505090505b92915050565b60006040517f190100000000000000000000000000000000000000000000000000000000000081528360028201528260228201526042812091505092915050565b60008060007f7fffffffffffffffffffffffffffffff5d576e7357a4501ddfe92f46681b20a08460001c11156117e157600060038592509250925061188b565b6000600188888888604051600081526020016040526040516118069493929190612395565b6020604051602081039080840390855afa158015611828573d6000803e3d6000fd5b505050602060405103519050600073ffffffffffffffffffffffffffffffffffffffff168173ffffffffffffffffffffffffffffffffffffffff160361187c57600060016000801b9350935093505061188b565b8060008060001b935093509350505b9450945094915050565b600060038111156118a9576118a86123da565b5b8260038111156118bc576118bb6123da565b5b03156119f557600160038111156118d6576118d56123da565b5b8260038111156118e9576118e86123da565b5b03611920576040517ff645eedf00000000000000000000000000000000000000000000000000000000815260040160405180910390fd5b60026003811115611934576119336123da565b5b826003811115611947576119466123da565b5b0361198c578060001c6040517ffce698f70000000000000000000000000000000000000000000000000000000081526004016119839190611d12565b60405180910390fd5b60038081111561199f5761199e6123da565b5b8260038111156119b2576119b16123da565b5b036119f457806040517fd78bce0c0000000000000000000000000000000000000000000000000000000081526004016119eb9190611df2565b60405180910390fd5b5b5050565b60606000611a0683611a6d565b90506000602067ffffffffffffffff811115611a2557611a246121ab565b5b6040519080825280601f01601f191660200182016040528015611a575781602001600182028036833780820191505090505b5090508181528360208201528092505050919050565b60008060ff8360001c169050601f811115611ab4576040517fb3512b0c00000000000000000000000000000000000000000000000000000000815260040160405180910390fd5b80915050919050565b600080fd5b60007fffffffff0000000000000000000000000000000000000000000000000000000082169050919050565b611af781611ac2565b8114611b0257600080fd5b50565b600081359050611b1481611aee565b92915050565b600060208284031215611b3057611b2f611abd565b5b6000611b3e84828501611b05565b91505092915050565b60008115159050919050565b611b5c81611b47565b82525050565b6000602082019050611b776000830184611b53565b92915050565b600081519050919050565b600082825260208201905092915050565b60005b83811015611bb7578082015181840152602081019050611b9c565b60008484015250505050565b6000601f19601f8301169050919050565b6000611bdf82611b7d565b611be98185611b88565b9350611bf9818560208601611b99565b611c0281611bc3565b840191505092915050565b60006020820190508181036000830152611c278184611bd4565b905092915050565b600073ffffffffffffffffffffffffffffffffffffffff82169050919050565b6000611c5a82611c2f565b9050919050565b611c6a81611c4f565b8114611c7557600080fd5b50565b600081359050611c8781611c61565b92915050565b6000819050919050565b611ca081611c8d565b8114611cab57600080fd5b50565b600081359050611cbd81611c97565b92915050565b60008060408385031215611cda57611cd9611abd565b5b6000611ce885828601611c78565b9250506020611cf985828601611cae565b9150509250929050565b611d0c81611c8d565b82525050565b6000602082019050611d276000830184611d03565b92915050565b600080600060608486031215611d4657611d45611abd565b5b6000611d5486828701611c78565b9350506020611d6586828701611c78565b9250506040611d7686828701611cae565b9150509250925092565b6000819050919050565b611d9381611d80565b8114611d9e57600080fd5b50565b600081359050611db081611d8a565b92915050565b600060208284031215611dcc57611dcb611abd565b5b6000611dda84828501611da1565b91505092915050565b611dec81611d80565b82525050565b6000602082019050611e076000830184611de3565b92915050565b60008060408385031215611e2457611e23611abd565b5b6000611e3285828601611da1565b9250506020611e4385828601611c78565b9150509250929050565b600060ff82169050919050565b611e6381611e4d565b82525050565b6000602082019050611e7e6000830184611e5a565b92915050565b600060208284031215611e9a57611e99611abd565b5b6000611ea884828501611c78565b91505092915050565b60007fff0000000000000000000000000000000000000000000000000000000000000082169050919050565b611ee681611eb1565b82525050565b611ef581611c4f565b82525050565b600081519050919050565b600082825260208201905092915050565b6000819050602082019050919050565b611f3081611c8d565b82525050565b6000611f428383611f27565b60208301905092915050565b6000602082019050919050565b6000611f6682611efb565b611f708185611f06565b9350611f7b83611f17565b8060005b83811015611fac578151611f938882611f36565b9750611f9e83611f4e565b925050600181019050611f7f565b5085935050505092915050565b600060e082019050611fce600083018a611edd565b8181036020830152611fe08189611bd4565b90508181036040830152611ff48188611bd4565b90506120036060830187611d03565b6120106080830186611eec565b61201d60a0830185611de3565b81810360c083015261202f8184611f5b565b905098975050505050505050565b61204681611e4d565b811461205157600080fd5b50565b6000813590506120638161203d565b92915050565b600080600080600080600060e0888a03121561208857612087611abd565b5b60006120968a828b01611c78565b97505060206120a78a828b01611c78565b96505060406120b88a828b01611cae565b95505060606120c98a828b01611cae565b94505060806120da8a828b01612054565b93505060a06120eb8a828b01611da1565b92505060c06120fc8a828b01611da1565b91505092959891949750929550565b6000806040838503121561212257612121611abd565b5b600061213085828601611c78565b925050602061214185828601611c78565b9150509250929050565b7f4e487b7100000000000000000000000000000000000000000000000000000000600052602260045260246000fd5b6000600282049050600182168061219257607f821691505b6020821081036121a5576121a461214b565b5b50919050565b7f4e487b7100000000000000000000000000000000000000000000000000000000600052604160045260246000fd5b600060c0820190506121ef6000830189611de3565b6121fc6020830188611eec565b6122096040830187611eec565b6122166060830186611d03565b6122236080830185611d03565b61223060a0830184611d03565b979650505050505050565b60006040820190506122506000830185611eec565b61225d6020830184611eec565b9392505050565b60006060820190506122796000830186611eec565b6122866020830185611d03565b6122936040830184611d03565b949350505050565b60006020820190506122b06000830184611eec565b92915050565b7f4e487b7100000000000000000000000000000000000000000000000000000000600052601160045260246000fd5b60006122f082611c8d565b91506122fb83611c8d565b9250828201905080821115612313576123126122b6565b5b92915050565b600060408201905061232e6000830185611eec565b61233b6020830184611de3565b9392505050565b600060a0820190506123576000830188611de3565b6123646020830187611de3565b6123716040830186611de3565b61237e6060830185611d03565b61238b6080830184611eec565b9695505050505050565b60006080820190506123aa6000830187611de3565b6123b76020830186611e5a565b6123c46040830185611de3565b6123d16060830184611de3565b95945050505050565b7f4e487b7100000000000000000000000000000000000000000000000000000000600052602160045260246000fdfea26469706673582212206a6d769af544a70ab7f49173846a36b37f86f8030cec05834a1c1ee7ee20d2f264736f6c63430008180033",
  "linkReferences": {},
  "deployedLinkReferences": {}
}